:100000000C9434000C943E000C943E000C943E0082
:100010000C943E000C943E000C943E000C943E0068
:100020000C943E000C943E000C943E000C943E0058
:100030000C943E000C943E000C943E000C943E0048
:100040000C943E000C943E000C943E000C943E0038
:100050000C943E000C943E000C943E000C943E0028
:100060000C943E000C943E0011241FBECFEFD8E04C
:10007000DEBFCDBF0E9440000C9458000C940000DD
:10008000259A2D9A28EE33E080EA9FE00000019740
:10009000E9F721503109C1F72D9828EE33E080EAC5
:1000A0009FE000000197E9F721503109C1F7E9CF3E
:0400B000F894FFCFF2
:00000001FF
